:1000000019C028C027C026C025C024C023C022C0D4
:1000100021C020C01FC01EC01DC01CC01BC01AC0F4
:1000200019C018C017C016C015C014C013C012C024
:1000300042C010C011241FBECFEFD4E0DEBFCDBF41
:1000400011E0A0E0B1E001C01D92AB30B107E1F7D3
:1000500002D096C0D5CF5398389A80E11CD0109228
:10006000020110920301109204011092050181E037
:1000700010920101109202014B9B03C08093010179
:1000800002C01092010190910201913011F4409A46
:10009000EFCF4098EDCF880F8093BA00ECEBF0E003
:1000A00080818F7D80838081856480838FEF8093C2
:1000B0000A01789408951F920F920FB60F9211249F
:1000C0008F939F93EF93FF938091B90090E0887F87
:1000D000907080389105B1F0813891052CF480360C
:1000E000910509F041C007C0883A910509F1883BA4
:1000F0009105D1F51DC085EC8093BC008FEF8093F6
:100100000A0135C08091BB0090910A019F3F29F4FC
:100110008B3018F110920A0125C090910A019B3092
:10012000C8F4E0910A01F0E0E050FF4F808312C074
:1001300080910A018F3F11F410920A0180910A0107
:100140008B3070F4E0910A01F0E0E050FF4F8081C5
:100150008093BB0080910A018F5F80930A0102C0E7
:100160001092BB0085EC01C085ED8093BC00FF912F
:10017000EF919F918F910F900FBE0F901F90189548
:04018000F894FFCF21
:00000001FF
